{"abi":[{"type":"constructor","inputs":[],"stateMutability":"nonpayable"},{"type":"function","name":"MINT_AMOUNT","inputs":[],"outputs":[{"name":"","type":"uint256","internalType":"uint256"}],"stateMutability":"view"},{"type":"function","name":"allowance","inputs":[{"name":"owner","type":"address","internalType":"address"},{"name":"spender","type":"address","internalType":"address"}],"outputs":[{"name":"","type":"uint256","internalType":"uint256"}],"stateMutability":"view"},{"type":"function","name":"approve","inputs":[{"name":"spender","type":"address","internalType":"address"},{"name":"value","type":"uint256","internalType":"uint256"}],"outputs":[{"name":"","type":"bool","internalType":"bool"}],"stateMutability":"nonpayable"},{"type":"function","name":"balanceOf","inputs":[{"name":"account","type":"address","internalType":"address"}],"outputs":[{"name":"","type":"uint256","internalType":"uint256"}],"stateMutability":"view"},{"type":"function","name":"decimals","inputs":[],"outputs":[{"name":"","type":"uint8","internalType":"uint8"}],"stateMutability":"view"},{"type":"function","name":"getLastdifficulty","inputs":[],"outputs":[{"name":"","type":"bytes32","internalType":"bytes32"}],"stateMutability":"view"},{"type":"function","name":"initDifficulty","inputs":[],"outputs":[{"name":"","type":"bytes32","internalType":"bytes32"}],"stateMutability":"view"},{"type":"function","name":"lastDifficulty","inputs":[],"outputs":[{"name":"","type":"bytes32","internalType":"bytes32"}],"stateMutability":"view"},{"type":"function","name":"mint","inputs":[{"name":"_seed","type":"string","internalType":"string"}],"outputs":[],"stateMutability":"nonpayable"},{"type":"function","name":"name","inputs":[],"outputs":[{"name":"","type":"string","internalType":"string"}],"stateMutability":"view"},{"type":"function","name":"owner","inputs":[],"outputs":[{"name":"","type":"address","internalType":"address"}],"stateMutability":"view"},{"type":"function","name":"renounceOwnership","inputs":[],"outputs":[],"stateMutability":"nonpayable"},{"type":"function","name":"symbol","inputs":[],"outputs":[{"name":"","type":"string","internalType":"string"}],"stateMutability":"view"},{"type":"function","name":"totalSupply","inputs":[],"outputs":[{"name":"","type":"uint256","internalType":"uint256"}],"stateMutability":"view"},{"type":"function","name":"transfer","inputs":[{"name":"to","type":"address","internalType":"address"},{"name":"value","type":"uint256","internalType":"uint256"}],"outputs":[{"name":"","type":"bool","internalType":"bool"}],"stateMutability":"nonpayable"},{"type":"function","name":"transferFrom","inputs":[{"name":"from","type":"address","internalType":"address"},{"name":"to","type":"address","internalType":"address"},{"name":"value","type":"uint256","internalType":"uint256"}],"outputs":[{"name":"","type":"bool","internalType":"bool"}],"stateMutability":"nonpayable"},{"type":"function","name":"transferOwnership","inputs":[{"name":"newOwner","type":"address","internalType":"address"}],"outputs":[],"stateMutability":"nonpayable"},{"type":"function","name":"verify","inputs":[{"name":"_seed","type":"string","internalType":"string"}],"outputs":[{"name":"","type":"bool","internalType":"bool"},{"name":"","type":"bytes32","internalType":"bytes32"}],"stateMutability":"view"},{"type":"event","name":"Approval","inputs":[{"name":"owner","type":"address","indexed":true,"internalType":"address"},{"name":"spender","type":"address","indexed":true,"internalType":"address"},{"name":"value","type":"uint256","indexed":false,"internalType":"uint256"}],"anonymous":false},{"type":"event","name":"DifficultyAdjustment","inputs":[{"name":"_address","type":"address","indexed":false,"internalType":"address"},{"name":"_difficulty","type":"bytes32","indexed":false,"internalType":"bytes32"}],"anonymous":false},{"type":"event","name":"Mint","inputs":[{"name":"_address","type":"address","indexed":false,"internalType":"address"},{"name":"_difficulty","type":"bytes32","indexed":false,"internalType":"bytes32"},{"name":"_newDifficulty","type":"bytes32","indexed":false,"internalType":"bytes32"},{"name":"_seed","type":"string","indexed":false,"internalType":"string"}],"anonymous":false},{"type":"event","name":"OwnershipTransferred","inputs":[{"name":"previousOwner","type":"address","indexed":true,"internalType":"address"},{"name":"newOwner","type":"address","indexed":true,"internalType":"address"}],"anonymous":false},{"type":"event","name":"Transfer","inputs":[{"name":"from","type":"address","indexed":true,"internalType":"address"},{"name":"to","type":"address","indexed":true,"internalType":"address"},{"name":"value","type":"uint256","indexed":false,"internalType":"uint256"}],"anonymous":false},{"type":"error","name":"ERC20InsufficientAllowance","inputs":[{"name":"spender","type":"address","internalType":"address"},{"name":"allowance","type":"uint256","internalType":"uint256"},{"name":"needed","type":"uint256","internalType":"uint256"}]},{"type":"error","name":"ERC20InsufficientBalance","inputs":[{"name":"sender","type":"address","internalType":"address"},{"name":"balance","type":"uint256","internalType":"uint256"},{"name":"needed","type":"uint256","internalType":"uint256"}]},{"type":"error","name":"ERC20InvalidApprover","inputs":[{"name":"approver","type":"address","internalType":"address"}]},{"type":"error","name":"ERC20InvalidReceiver","inputs":[{"name":"receiver","type":"address","internalType":"address"}]},{"type":"error","name":"ERC20InvalidSender","inputs":[{"name":"sender","type":"address","internalType":"address"}]},{"type":"error","name":"ERC20InvalidSpender","inputs":[{"name":"spender","type":"address","internalType":"address"}]},{"type":"error","name":"OwnableInvalidOwner","inputs":[{"name":"owner","type":"address","internalType":"address"}]},{"type":"error","name":"OwnableUnauthorizedAccount","inputs":[{"name":"account","type":"address","internalType":"address"}]}],"bytecode":{"object":"0x60806040525f196006819055600755348015610019575f5ffd5b50336040518060400160405280601881526020017f50657270657475616c204d6f74696f6e204d616368696e65000000000000000081525060405180604001604052806003815260200162504d4d60e81b815250816003908161007c91906101fa565b50600461008982826101fa565b5050506001600160a01b0381166100ba57604051631e4fbdf760e01b81525f60048201526024015b60405180910390fd5b6100c3816100d1565b506100cc610122565b6102b4565b600580546001600160a01b038381166001600160a01b0319831681179093556040519116919082907f8be0079c531659141344cd1fd0a4f28419497f9722a3daafe3b4186f6b6457e0905f90a35050565b61012a610135565b6101335f6100d1565b565b6005546001600160a01b031633146101335760405163118cdaa760e01b81523360048201526024016100b1565b634e487b7160e01b5f52604160045260245ffd5b600181811c9082168061018a57607f821691505b6020821081036101a857634e487b7160e01b5f52602260045260245ffd5b50919050565b601f8211156101f557805f5260205f20601f840160051c810160208510156101d35750805b601f840160051c820191505b818110156101f2575f81556001016101df565b50505b505050565b81516001600160401b0381111561021357610213610162565b610227816102218454610176565b846101ae565b6020601f821160018114610259575f83156102425750848201515b5f19600385901b1c1916600184901b1784556101f2565b5f84815260208120601f198516915b828110156102885787850151825560209485019460019092019101610268565b50848210156102a557868401515f19600387901b60f8161c191681555b50505050600190811b01905550565b610fd0806102c15f395ff3fe608060405234801561000f575f5ffd5b506004361061012f575f3560e01c8063715018a6116100ad578063bb9c6c3e1161007d578063d85d3d2711610063578063d85d3d271461027e578063dd62ed3e14610291578063f2fde38b146102d6575f5ffd5b8063bb9c6c3e1461024b578063cd48766914610275575f5ffd5b8063715018a6146101fe5780638da5cb5b1461020857806395d89b4114610230578063a9059cbb14610238575f5ffd5b80632deb1022116101025780634801aa7a116100e85780634801aa7a146101b05780635427789c146101b957806370a08231146101c9575f5ffd5b80632deb102214610199578063313ce567146101a1575f5ffd5b806306fdde0314610133578063095ea7b31461015157806318160ddd1461017457806323b872dd14610186575b5f5ffd5b61013b6102e9565b6040516101489190610c7e565b60405180910390f35b61016461015f366004610cbf565b610379565b6040519015158152602001610148565b6002545b604051908152602001610148565b610164610194366004610ce7565b610392565b600754610178565b60405160128152602001610148565b61017860065481565b610178683635c9adc5dea0000081565b6101786101d7366004610d21565b73ffffffffffffffffffffffffffffffffffffffff165f9081526020819052604090205490565b6102066103b5565b005b60055460405173ffffffffffffffffffffffffffffffffffffffff9091168152602001610148565b61013b6103c8565b610164610246366004610cbf565b6103d7565b61025e610259366004610d67565b6103e4565b604080519215158352602083019190915201610148565b61017860075481565b61020661028c366004610d67565b610432565b61017861029f366004610e57565b73ffffffffffffffffffffffffffffffffffffffff9182165f90815260016020908152604080832093909416825291909152205490565b6102066102e4366004610d21565b610588565b6060600380546102f890610e88565b80601f016020809104026020016040519081016040528092919081815260200182805461032490610e88565b801561036f5780601f106103465761010080835404028352916020019161036f565b820191905f5260205f20905b81548152906001019060200180831161035257829003601f168201915b5050505050905090565b5f336103868185856105eb565b60019150505b92915050565b5f3361039f8582856105fd565b6103aa8585856106ca565b506001949350505050565b6103bd610773565b6103c65f6107c6565b565b6060600480546102f890610e88565b5f336103868185856106ca565b5f5f5f33846040516020016103fa929190610ed9565b60405160208183030381529060405280519060200120905060075481101561042757600194909350915050565b505f93849350915050565b3332146104c6576040517f08c379a000000000000000000000000000000000000000000000000000000000815260206004820152602160248201527f436f6e74726163747320617265206e6f7420616c6c6f77656420746f206d696e60448201527f740000000000000000000000000000000000000000000000000000000000000060648201526084015b60405180910390fd5b5f33826040516020016104da929190610ed9565b6040516020818303038152906040528051906020012090506104fb8161083c565b335f81815260086020526040902080547fffffffffffffffffffffffffffffffffffffffffffffffffffffffffffffff0016600117905561054590683635c9adc5dea000006108e8565b7f90f9516a755bbc180700aa4ed94838b4b416598e3e2906843cd7e2e4c432f32b33600754838560405161057c9493929190610f1e565b60405180910390a15050565b610590610773565b73ffffffffffffffffffffffffffffffffffffffff81166105df576040517f1e4fbdf70000000000000000000000000000000000000000000000000000000081525f60048201526024016104bd565b6105e8816107c6565b50565b6105f88383836001610946565b505050565b73ffffffffffffffffffffffffffffffffffffffff8381165f908152600160209081526040808320938616835292905220547fffffffffffffffffffffffffffffffffffffffffffffffffffffffffffffffff81146106c457818110156106b6576040517ffb8f41b200000000000000000000000000000000000000000000000000000000815273ffffffffffffffffffffffffffffffffffffffff8416600482015260248101829052604481018390526064016104bd565b6106c484848484035f610946565b50505050565b73ffffffffffffffffffffffffffffffffffffffff8316610719576040517f96c6fd1e0000000000000000000000000000000000000000000000000000000081525f60048201526024016104bd565b73ffffffffffffffffffffffffffffffffffffffff8216610768576040517fec442f050000000000000000000000000000000000000000000000000000000081525f60048201526024016104bd565b6105f8838383610a8b565b60055473ffffffffffffffffffffffffffffffffffffffff1633146103c6576040517f118cdaa70000000000000000000000000000000000000000000000000000000081523360048201526024016104bd565b6005805473ffffffffffffffffffffffffffffffffffffffff8381167fffffffffffffffffffffffff0000000000000000000000000000000000000000831681179093556040519116919082907f8be0079c531659141344cd1fd0a4f28419497f9722a3daafe3b4186f6b6457e0905f90a35050565b60075481106108a7576040517f08c379a000000000000000000000000000000000000000000000000000000000815260206004820152601160248201527f646966666963756c7479206e6f74206f6b00000000000000000000000000000060448201526064016104bd565b600781905560408051338152602081018390527f8312ddbba3412ff2a546b91acf8e0bde0cb3f750de1a51e28567d1e013eace78910160405180910390a150565b73ffffffffffffffffffffffffffffffffffffffff8216610937576040517fec442f050000000000000000000000000000000000000000000000000000000081525f60048201526024016104bd565b6109425f8383610a8b565b5050565b73ffffffffffffffffffffffffffffffffffffffff8416610995576040517fe602df050000000000000000000000000000000000000000000000000000000081525f60048201526024016104bd565b73ffffffffffffffffffffffffffffffffffffffff83166109e4576040517f94280d620000000000000000000000000000000000000000000000000000000081525f60048201526024016104bd565b73ffffffffffffffffffffffffffffffffffffffff8085165f90815260016020908152604080832093871683529290522082905580156106c4578273ffffffffffffffffffffffffffffffffffffffff168473ffffffffffffffffffffffffffffffffffffffff167f8c5be1e5ebec7d5bd14f71427d1e84f3dd0314c0f7b2291e5b200ac8c7c3b92584604051610a7d91815260200190565b60405180910390a350505050565b73ffffffffffffffffffffffffffffffffffffffff8316610ac2578060025f828254610ab79190610f62565b90915550610b729050565b73ffffffffffffffffffffffffffffffffffffffff83165f9081526020819052604090205481811015610b47576040517fe450d38c00000000000000000000000000000000000000000000000000000000815273ffffffffffffffffffffffffffffffffffffffff8516600482015260248101829052604481018390526064016104bd565b73ffffffffffffffffffffffffffffffffffffffff84165f9081526020819052604090209082900390555b73ffffffffffffffffffffffffffffffffffffffff8216610b9b57600280548290039055610bc6565b73ffffffffffffffffffffffffffffffffffffffff82165f9081526020819052604090208054820190555b8173ffffffffffffffffffffffffffffffffffffffff168373ffffffffffffffffffffffffffffffffffffffff167fddf252ad1be2c89b69c2b068fc378daa952ba7f163c4a11628f55a4df523b3ef83604051610c2591815260200190565b60405180910390a3505050565b5f81518084528060208401602086015e5f6020828601015260207fffffffffffffffffffffffffffffffffffffffffffffffffffffffffffffffe0601f83011685010191505092915050565b602081525f610c906020830184610c32565b9392505050565b803573ffffffffffffffffffffffffffffffffffffffff81168114610cba575f5ffd5b919050565b5f5f60408385031215610cd0575f5ffd5b610cd983610c97565b946020939093013593505050565b5f5f5f60608486031215610cf9575f5ffd5b610d0284610c97565b9250610d1060208501610c97565b929592945050506040919091013590565b5f60208284031215610d31575f5ffd5b610c9082610c97565b7f4e487b71000000000000000000000000000000000000000000000000000000005f52604160045260245ffd5b5f60208284031215610d77575f5ffd5b813567ffffffffffffffff811115610d8d575f5ffd5b8201601f81018413610d9d575f5ffd5b803567ffffffffffffffff811115610db757610db7610d3a565b6040517fffffffffffffffffffffffffffffffffffffffffffffffffffffffffffffffe0603f7fffffffffffffffffffffffffffffffffffffffffffffffffffffffffffffffe0601f8501160116810181811067ffffffffffffffff82111715610e2357610e23610d3a565b604052818152828201602001861015610e3a575f5ffd5b816020840160208301375f91810160200191909152949350505050565b5f5f60408385031215610e68575f5ffd5b610e7183610c97565b9150610e7f60208401610c97565b90509250929050565b600181811c90821680610e9c57607f821691505b602082108103610ed3577f4e487b71000000000000000000000000000000000000000000000000000000005f52602260045260245ffd5b50919050565b7fffffffffffffffffffffffffffffffffffffffff0000000000000000000000008360601b1681525f82518060208501601485015e5f92016014019182525092915050565b73ffffffffffffffffffffffffffffffffffffffff85168152836020820152826040820152608060608201525f610f586080830184610c32565b9695505050505050565b8082018082111561038c577f4e487b71000000000000000000000000000000000000000000000000000000005f52601160045260245ffdfea2646970667358221220c5cde495056aef16a870776ee91cdfb367907b9f452ba3982050d9c9b01cc27a64736f6c634300081c0033","linkReferences":{}},"methodIdentifiers":{"MINT_AMOUNT()":"5427789c","allowance(address,address)":"dd62ed3e","approve(address,uint256)":"095ea7b3","balanceOf(address)":"70a08231","decimals()":"313ce567","getLastdifficulty()":"2deb1022","initDifficulty()":"4801aa7a","lastDifficulty()":"cd487669","mint(string)":"d85d3d27","name()":"06fdde03","owner()":"8da5cb5b","renounceOwnership()":"715018a6","symbol()":"95d89b41","totalSupply()":"18160ddd","transfer(address,uint256)":"a9059cbb","transferFrom(address,address,uint256)":"23b872dd","transferOwnership(address)":"f2fde38b","verify(string)":"bb9c6c3e"},"id":32}